:060000000A128A11122809
:10000800FE00030EF1000408F2000A08F300831250
:1000180003137F08F4000A128A1115280A128A119C
:100028007C280B1C1828192827288B1D1C281D28FC
:100038002728061C2028212827288B110130880012
:100048008B160B1027280B1D2A282B284B288B1EB4
:100058002E282F284B280130F5070318F60A003000
:10006800F6070630F0007008810702307606031D97
:100078003F2871307506031D422843284928F50199
:10008800F60188018B158B1249280B114B2874082F
:10009800FF0073088A0072088400710E8300FE0E48
:1000A8007E0E0900013083160313860083120313A2
:1000B80086018316031388018312031388018316AC
:1000C800031788018901831603130108D6398100B3
:1000D8000108063881000B0889388B000B0889391C
:1000E8008B0001309600782878280A128A11122885
:0C00F800F501F60183010A128A11562856
:00000001FF
