:060000000A128A11122809
:10000800FE00030EF1000408F2000A08F300831250
:1000180003137F08F4000A128A1115280A128A119C
:1000280078280B1C1828192823288B1D1C281D2804
:1000380023288B11013088008B160B1023280B1DE9
:100048002628272847288B1E2A282B2847280130AE
:10005800F5070318F60A0030F6070630F0007008B6
:10006800810702307606031D3B2871307506031D93
:100078003E283F284528F501F60188018B158B128B
:1000880045280B1147287408FF0073088A00720876
:100098008400710E8300FE0E7E0E09000130831667
:1000A8000313860083120313860183160313880142
:1000B80083120313880183160317880189018316A5
:1000C80003130108D63981000108063881000B089E
:1000D80089388B000B0889398B0001309600742809
:1000E80074280A128A111228F501F601F701F8019D
:0800F80083010A128A1152284B
:00000001FF
